S00B0000496F542E737265630D
S1130000E5C0000004C1000002C1000000C10000FE
S1130010FEC00000FCC00000FAC00000F8C00000F0
S1130020F6C00000F4C00000F2C00000F0C0000000
S11300303EC50000ECC00000EAC00000E8C00000BB
S1130040E6C00000E4C00000E2C00000E0C0000020
S1130050DEC00000DCC00000DAC00000D8C0000030
S1130060D6C000000C94832A0C94D52AD0C000007A
S1130070CEC000000C941529CAC00000C8C00000FE
S1130080C6C00000C4C00000C2C00000C0C0000060
S11300900C94192B0C946B2BBAC000000C94932E67
S11300A0B6C00000B4C00000B2C00000B0C0000080
S11300B0AEC00000ACC00000AAC00000A8C0000090
S11300C0A6C00000A4C00000A2C000000C94AF2B86
S11300D00C94012C9CC000000C94452C0C94972C7F
S11300E096C00000311B311B311B681B701B851B24
S11300F0311B311B681B701BB52E252F252F252F77
S1130100252F252F252F252FB52E252F252F252FBC
S1130110252F252F252F252FB72E252F252F252FAA
S1130120252F252F252F252F252F252F252F252F2B
S1130130252F252F252F252FB72E252F252F252F8A
S1130140252F252F252F252F252F252F252F252F0B
S1130150252F252F252F252F212F252F252F252FFF
S1130160252F252F252F252FEC2E252F252F252F25
S1130170252F252F252F252F252F252F252F252FDB
S1130180252F252F252F252FE02E252F252F252F11
S1130190252F252F252F252F042F0E94720D8091A6
S11301A04116823008F0BDD30E94AE1BF6CFCF9328
S11301B0DF931F92CDB7DEB7CE0101960E94AE1831
S11301C049810E94A31A0E94FA1AF6CF11241FBE75
S11301D0CFEFD1E2DEBFCDBF00E00CBF18E0A0E05E
S11301E0B2E0E2E5FCE600E00BBF02C007900D922E
S11301F0A433B107D9F728E1A4E3B8E001C01D9204
S1130200A636B207E1F70E94A91C0C942736F8CE53
S11302100F9301110CC0DC01CB0182239323A4238F
S1130220B523892B8A2B8B2B79F480E010C0DC0159
S1130230CB0182239323A423B523281739074A0724
S11302405B0721F080E003C081E001C081E00F91F1
S11302500895CF93DF938FE090E0AFD1EC01009746
S113026039F0FC011192119211921192CF018BD2AB
S1130270CE01DF91CF9108952F923F924F925F92DA
S11302806F927F928F929F92AF92BF92CF92DF92A2
S1130290EF92FF920F931F93CF93DF93EC014A01E8
S11302A05B01622E702E0E94BD0E288039804A8028
S11302B05B80A5019401C201B101AADF8823A1F0EA
S11302C0662089F1D501C40180959095A095B095DB
S11302D082219321A421B52188839983AA83BB8396
S11302E0C12CD12C760122C0C114D104E104F10443
S11302F0E9F0611004C040E050E0BA0104C040E0FD
S113030050E060E071E071107460482959296A294D
S11303107B2997018601CE0104960E94D511212CD8
S1130320312C210103C0C12CD12C76010E94FD0F78
S1130330CD28CE28CF2859F1811101C0F2D20E94D4
S113034097156B017C0191FD1FC00FB6F8940F92B5
S1130350C880D980EA80FB80072DA5019401C701DC
S1130360B60156DF882371F0662061F08094909482
S1130370A094B0948C209D20AE20BF2088829982C6
S1130380AA82BB820F900FBE160127015524C20119
S1130390B101DF91CF911F910F91FF90EF90DF900A
S11303A0CF90BF90AF909F908F907F906F905F9011
S11303B04F903F902F9008954F925F926F927F924B
S11303C0AF92BF92CF92DF92EF92FF920F931F935F
S11303D0CF93DF93EC016A017B018C01095F1F4F0E
S11303E00E94BD0EEB85FC8588819981AA81BB8121
S11303F0C82AD92AEA2AFB2AC882D982EA82FB823D
S1130400C12CD12C76013DC0A480B580808191811E
S1130410A281B381AC01BD017727B2FD0EC0488033
S113042059806A807B80442255226622772245289F
S11304304628472889F420E012C0488059806A8001
S11304407B80442255226622772244155505660591
S1130450770521F020E003C021E001C021E0222340
S113046071F0B0FF04C0C42AD52AE62AF72A4881CD
S113047059816A817B817260CF010E941013EA2D39
S1130480FB2DE017F10709F0BFCFC094D094E0949E
S1130490F09488819981AA81BB81C822D922EA2259
S11304A0FB22C882D982EA82FB820E94FD0F688106
S11304B079818A819B81DF91CF911F910F91FF9068
S11304C0EF90DF90CF90BF90AF907F906F905F9050
S11304D04F900895E0E4F8E0A4E4B8E0B183A08389
S11304E013821282ECEEF5E1F0933F08E0933E08AC
S11304F0138212821182108288EA9DE013969C93E3
S11305008E931297ED93FC9390933B0880933A0853
S113051090933D0880933C0880E090E890933508E0
S1130520809334080895CF93DF93EC01A0E4B8E0FE
S113053001C0DF01ED91FC911197EC17FD07C8F3A1
S113054012968D919C9113979D01280F391FC21704
S1130550D30749F42A813B81820F931F13969C93FE
S11305608E931297ED018A819B819E01280F391F7A
S1130570E217F307C1F420913E0830913F08E217D7
S1130580F30771F022813381820F931F9B838A8347
S1130590ED91FC911197808191819983888305C0A5
S11305A03983288302C0F983E883CA17DB0711F073
S11305B0CD93DC93DF91CF910895EF92FF920F9347
S11305C01F93CF93DF938C010E94BD0E80913E0850
S11305D090913F08892B09F47DDF80913408909134
S11305E0350880239123892B09F076C00115110564
S11305F049F0C80104960817190718F000E010E044
S113060001C08C010115110509F469C080913C08F1
S113061090913D088017910708F464C0C091400888
S1130620D0914108E0E4F8E002C0FE01EC018A81C7
S11306309B818017910720F4888199810097A9F7FD
S113064080913E0890913F08C817D90709F44DC01E
S1130650E080F18084E0E80EF11C88819981918327
S113066080832A813B81201B310B2930310548F0DE
S1130670CE01800F911FFC01338322831B830A83E5
S113068052DF2A813B8180913C0890913D08821B76
S1130690930B90933D0880933C0840913A08509105
S11306A03B088417950720F490933B0880933A08FD
S11306B08091340890913508282B392B3B832A8369
S11306C01982188280913808909139080196909384
S11306D03908809338080BC0E12CF12C08C0E12CB8
S11306E0F12C05C0E12CF12C02C0E12CF12C0E946C
S11306F0FD0FE114F10411F40E94BA1BC701DF914C
S1130700CF911F910F91FF90EF9008950F931F9336
S1130710CF93DF93009791F1EC0124974A815B8199
S11307202091340830913508BA0162237323672B72
S113073029F168817981672B09F520953095242367
S113074035233B832A830E94BD0E8A819B8120919D
S11307503C0830913D08820F931F90933D0880938D
S11307603C08CE01E0DE809136089091370801966E
S113077090933708809336080E94FD0FDF91CF9144
S11307801F910F910895FC010396928381834FEF8B
S11307905FEFBA01438354836583768390878783AD
S11307A09287818710820895FC011386128608952A
S11307B00F931F93CF93DF93EB01088119812A8153
S11307C03B810F3F4FEF14072407340721F4FC014A
S11307D0A185B28511C0DC01139601C0DF01149616
S11307E0ED91FC91159740815181628173810417C9
S11307F015072607370790F71496ED91FC91159786
S1130800FD83EC83D783C683BF83AE831596DC93C5
S1130810CE9314979B878A87FC0120812F5F2083C6
S1130820DF91CF911F910F910895CF93DF93FC0136
S1130830A285B385C481D581868197819F838E8368
S1130840C681D781848195819D838C8311968D91F6
S11308509C911297E817F90731F4868197811296D3
S11308609C938E931197138612868C9181508C934E
S11308708C91DF91CF910895A89590EC88E10FB603
S1130880F894A895809360000FBE9093600008953B
S1130890FC01608331977083319710823197108205
S11308A0319720E820833197108231971082319755
S11308B01082779740833197508386970895DCDFC1
S11308C0A091AF16B091B016CD91CDBFDD91DEBF32
S11308D0FF91EF91DF91CF91BF91AF919F918F9154
S11308E07F916F915F914F913F912F911F910F9144
S11308F0FF90EF90DF90CF90BF90AF909F908F903C
S11309007F906F905F904F903F902F901F900F902B
S11309100CBE0F900BBE0F900FBE0F90089581E098
S113092008950F920FB6F8940F920BB60F920CB66F
S11309300F921F9211242F923F924F925F926F92C7
S11309407F928F929F92AF92BF92CF92DF92EF925B
S1130950FF920F931F932F933F934F935F936F9344
S11309607F938F939F93AF93BF93CF93DF93EF9333
S1130970FF93A091AF16B091B0160DB60D920EB6BE
S11309800D920E945911A091AF16B091B016CD915D
S1130990CDBFDD91DEBFFF91EF91DF91CF91BF918C
S11309A0AF919F918F917F916F915F914F913F9103
S11309B02F911F910F91FF90EF90DF90CF90BF90F8
S11309C0AF909F908F907F906F905F904F903F90EB
S11309D02F901F900F900CBE0F900BBE0F900FBE68
S11309E00F9008950F920FB6F8940F920BB60F92D2
S11309F00CB60F921F9211242F923F924F925F9246
S1130A006F927F928F929F92AF92BF92CF92DF921A
S1130A10EF92FF920F931F932F933F934F935F9304
S1130A206F937F938F939F93AF93BF93CF93DF93F2
S1130A30EF93FF93A091AF16B091B0160DB60D923F
S1130A400EB60D9213BE0E94D10E81110E9459114F
S1130A50A091AF16B091B016CD91CDBFDD91DEBFA0
S1130A60FF91EF91DF91CF91BF91AF919F918F91C2
S1130A707F916F915F914F913F912F911F910F91B2
S1130A80FF90EF90DF90CF90BF90AF909F908F90AA
S1130A907F906F905F904F903F902F901F900F909A
S1130AA00CBE0F900BBE0F900FBE0F9008959ADFEF
S1130AB01895DC0153962C915397222341F05A96B2
S1130AC0ED91FC915B9790818AE0891B089580E009
S1130AD008950FB6F8940F92FC01868D811102C01F
S1130AE081E001C080E00F900FBE08950FB6F89426
S1130AF00F92FC01268D878D281302C081E001C06E
S1130B0080E00F900FBE08950F931F93CF93DF9350
S1130B10EC01042F1E8D48A141110CC088819981DC
S1130B20892B09F042C08C819D810E94D5141D82BD
S1130B301C8242C0011117C050E08A819B810E942F
S1130B40AA3228A18A819B81820F911D9B838A836B
S1130B502C813D818217930750F1888199819B8371
S1130B608A8380E029C050E08E819F810E94AA324E
S1130B7088A190E09195819591092E813F81280F5C
S1130B80391F3F832E83488159812417350730F458
S1130B902C813D81820F931F9F838E83023049F401
S1130BA0112349F0115080E007C080E005C080E0C7
S1130BB003C080E001C080E01F5F1E8FDF91CF91F2
S1130BC01F910F910895FC0140A14423A9F050E026
S1130BD026813781240F351F3783268384819581AD
S1130BE02817390720F08081918197838683CB0170
S1130BF0668177810C94AA3208951F93CF93DF9373
S1130C00EC010FB6F8940F921AA10BC08B898823BC
S1130C1051F0CE0143960E94611281110E94371453
S1130C20115011169CF38FEF8AA30F900FBE0FB6CD
S1130C30F8940F9219A10BC08885882351F0CE0136
S1130C4008960E94611281110E94371411501116E6
S1130C509CF38FEF89A30F900FBEDF91CF911F916B
S1130C600895CF93DF93EC010FB6F8940F92E881C7
S1130C70F9818F8D28A190E030E0829FA001839FAD
S1130C80500D929F500D11244E0F5F1F5D834C83B6
S1130C901E8EFB83EA830197289FA001299F500D94
S1130CA0389F500D1124CF01840F951F9F838E838D
S1130CB08FEF89A38AA361110BC08885882371F003
S1130CC0CE0108960E946112882341F02ADE06C0F4
S1130CD0CE01089658DDCE01439655DD0F900FBE28
S1130CE081E0DF91CF9108950F931F93F801611173
S1130CF003C01183008302C051834083878F60A3A4
S1130D0061E0CF01AEDF1F910F910895DF92EF9262
S1130D10FF920F931F93CF93DF93F82EE62ED42EDA
S1130D20869FC0011124839648DCEC01009741F0B2
S1130D308C012D2DAC014D5D5F4F6E2D8F2DD4DFB9
S1130D40CE01DF91CF911F910F91FF90EF90DF9033
S1130D500895CF92DF92EF92FF920F931F93CF9358
S1130D60DF93CDB7DEB729970FB6F894DEBF0FBE79
S1130D70CDBF7C016B012E833F834887598710E0E8
S1130D800FB6F8940F92F701968D878D981710F08F
S1130D900230B1F4402FB601C701B6DEF7019389E2
S1130DA0992341F0C70143960E946112882321F0E0
S1130DB0B8DD02C08111B5DD0F900FBE81E04CC0DB
S1130DC08E819F81A885B985892B8A2B8B2B21F451
S1130DD00F900FBE80E040C0111105C0CE010196F6
S1130DE00E94C01311E00F900FBEC7D70FB6F8943E
S1130DF00F92F70181A18F3F09F411A2F70182A19B
S1130E008F3F09F412A20F900FBEBE016A5F7F4F9D
S1130E10CE0101960E94D113811119C0C70166DE6B
S1130E20882381F04E815F8168857985C7010896A2
S1130E300E94BE11C701E1DE0E94FD0F8111A0CF07
S1130E4070DD9ECFC701D9DE0E94FD0F99CFC70187
S1130E50D4DE0E94FD0F80E029960FB6F894DEBF21
S1130E600FBECDBFDF91CF911F910F91FF90EF90F7
S1130E70DF90CF9008950F93009769F0FC011582DD
S1130E80148211821082168200E020E030E0A90171
S1130E9060E070E05EDF0F910895CF93DF93482FF9
S1130EA060E081E033DFEC01E6DFCE01DF91CF913A
S1130EB00895EF92FF920F931F93CF93DF938A01CC
S1130EC0FC01568D378D531710F02230F9F4422F60
S1130ED07801EC011AA18E8DCE0116DE1F3F81F43C
S1130EE08B898823A9F0CE0143960E94611288233E
S1130EF089F0E114F10481F081E0F70180830DC0F1
S1130F00FF24F394F10EFAA281E007C080E005C04B
S1130F1081E003C081E001C081E0DF91CF911F91A6
S1130F200F91FF90EF900895CF92DF92EF92FF928E
S1130F300F931F93CF93DF93CDB7DEB729970FB6E7
S1130F40F894DEBF0FBECDBF8C016B012E833F83AF
S1130F5048875987E12C0FB6F8940F92F801F68C64
S1130F60FF2099F0B601C8012EDEFA94F801F68E3E
S1130F708085882331F0C80108960E94611281118E
S1130F80D0DC0F900FBE81E04FC08E819F81A88579
S1130F90B985892B8A2B8B2B21F40F900FBE80E00F
S1130FA043C0E11006C0CE0101960E94C013EE2496
S1130FB0E3940F900FBEE1D60FB6F8940F92F801A8
S1130FC081A18F3F09F411A2F80182A18F3F09F496
S1130FD012A20F900FBEBE016A5F7F4FCE01019631
S1130FE00E94D113811117C0C80173DD882379F0E1
S1130FF04E815F8168857985C80143960E94BE1140
S1131000C801FBDDFAD78111A6CF8BDCA4CFC801C0
S1131010F4DDF3D7A0CFC801F0DDEFD7C80159DD67
S1131020882309F498CF80E029960FB6F894DEBFA0
S11310300FBECDBFDF91CF911F910F91FF90EF9025
S1131040DF90CF900895EF92FF920F931F93CF9369
S1131050DF93CDB7DEB729970FB6F894DEBF0FBE86
S1131060CDBF8C014E835F8368877987E12CF12C97
S11310700FB6F8940F92F801868D8823C9F0815039
S1131080868F80819181892B29F40E94C115F801F2
S113109095838483F8018085882331F0C8010896FC
S11310A00E94611281113DDC0F900FBE81E06FC080
S11310B08E819F81A885B985892B8A2B8B2B21F45E
S11310C00F900FBE80E063C0F11006C0CE01019600
S11310D00E94C013FF24F3940F900FBE4ED60FB698
S11310E0F8940F92F80181A18F3F09F411A2F8013D
S11310F082A18F3F09F412A20F900FBEBE016A5F56
S11311007F4FCE0101960E94D113811126C0C801E0
S1131110E0DC8823F1F0F80180819181892B51F47E
S11311200FB6F8940F92848195810E944E14E82E94
S11311300F900FBE4E815F8168857985C801439603
S11311400E94BE11C80159DD58D7811191CFE9DB46
S11311508FCFC80152DD51D78BCFC8014EDD4DD79B
S1131160C801B7DC882309F483CFEE2079F00FB6E9
S1131170F8940F92C8019DDC682FF8018481958151
S11311800E9430150F900FBE80E001C080E02996C8
S11311900FB6F894DEBF0FBECDBFDF91CF911F9184
S11311A00F91FF90EF900895CF93DF93EC010FB66A
S11311B0F8940F9289A18F3F09F419A28AA18F3F55
S11311C009F41AA20F900FBE8E8D811104C0CE01B6
S11311D043960E941F12CE0110DDDF91CF91089536
S11311E0FC014481558122813381240F351F808184
S11311F09181B901681B790BCB016417750710F055
S1131200841B950B08950F93FC018FE0DF011D9261
S11312108A95E9F7758764875583448337832683E2
S113122006870F910895AF92BF92CF92DF92EF920B
S1131230FF920F931F93CF93DF936C015B017A01AD
S1131240FC01C281D381048115810C1B1D0B401745
S1131250510708F48A01F60184859585A801B50132
S11312608C0F9D1F0E94AA320E151F0558F4A7016A
S1131270401B510BB501600F711FF60184859585E4
S11312800E94AA32CE018E0D9F1DF6012481358164
S11312908217930710F0821B930BF60193838283CA
S11312A0C701DF91CF911F910F91FF90EF90DF90D5
S11312B0CF90BF90AF900895CF92DF92EF92FF92BC
S11312C00F931F93CF93DF931F921F92CDB7DEB777
S11312D07C016B015A83498321153105C1F0FC015E
S11312E0868580FD08C04217530708F49A013A83A3
S11312F0298381E00FC02017310758F042E050E005
S1131300BE016F5F7F4FC7018EDF81E003C080E0C5
S113131001C080E0882331F049815A81B601C701B8
S113132082DF02C080E090E00F900F90DF91CF91B8
S11313301F910F91FF90EF90DF90CF900895AF929F
S1131340BF92CF92DF92EF92FF920F931F93CF93AE
S1131350DF937C015B01E9014217530708F4EA01BA
S1131360209781F1F7010081118184819581801B8F
S1131370910B6E018C179D0708F46C01F7016485CD
S11313807585600F711FA601C5010E94AA32CC1693
S1131390DD0658F4AE014C195D09F70164857585C5
S11313A0C5018C0D9D1D0E94AA320C0F1D1FF70153
S11313B0848195810817190710F0081B190BF70190
S11313C011830083CE01DF91CF911F910F91FF9084
S11313D0EF90DF90CF90BF90AF9008956F927F927F
S11313E08F929F92AF92BF92CF92DF92EF92FF9231
S11313F00F931F93CF93DF931F921F92CDB7DEB746
S11314006C014B015A01790101151105B1F0FC0180
S113141060807180A801BE016F5F7F4F90DF89817A
S11314209A81E01AF10AA816B90630F4F60171821D
S11314306082A12CB12C01C05C019701A501B4010B
S1131440C6017DDF0F900F90DF91CF911F910F9117
S1131450FF90EF90DF90CF90BF90AF909F908F90D0
S11314607F906F900895CF92DF92EF92FF920F9347
S1131470CF93DF93EC016B01413011F401E001C023
S113148000E0C114D10419F4CC24C394D12CCE01AE
S11314904096C817D90720F421968FD87C0102C042
S11314A0E12CF12CE114F10439F09601AE01B701FD
S11314B0615F7F4FC701A7DEC701DF91CF910F9115
S11314C0FF90EF90DF90CF9008950F930FB6F894AC
S11314D00F92FC0120853185232B71F422853385FD
S11314E0232B61F426813781448155816485758578
S11314F0068589DE81E003C080E001C080E00F90B2
S11315000FBE0F910895FC01248135818081918162
S1131510820F931F42815381841B950B019782177D
S1131520930710F0821B930B08952F923F924F92D2
S11315305F926F927F928F929F92AF92BF92CF925F
S1131540DF92EF92FF920F931F93CF93DF93CDB768
S1131550DEB72B970FB6F894DEBF0FBECDBF4C019C
S11315607B876A871A010E831F8328873987FC01CA
S1131570848195810197268520FF0CC02A01F2E021
S11315804F0E511C8415950558F41E821F8218862F
S1131590198606C08417950710F02A0101C02C0192
S11315A08E819F81A885B985892B8A2B8B2B09F481
S11315B038C0CE0101960E94AA130FB6F8940F9278
S11315C0C401A1DF3C018415950540F560E080E08D
S11315D090E00E9494180E943B14F4019387828740
S11315E00F900FBEAE80BF80C884D984E12CF12C4B
S11315F000E010E0980140E050E0BA0180E00E9471
S1131600D315F40113861286BE016A5F7F4FCE01A3
S113161001960E94D113882381F205C00F900FBE5A
S113162002C0612C712C6114710419F4C4016BDFC4
S11316303C0182019301A1016A857B85C4013CDEE2
S11316406C01892BE9F0C401CBDDF40126813781DB
S113165082179307A8F091D3F40180859185892B93
S113166071F080859185E12CF12C00E020E030E0E0
S1131670A90160E00E947B16F40111861086BDD496
S1131680C6012B960FB6F894DEBF0FBECDBFDF9117
S1131690CF911F910F91FF90EF90DF90CF90BF906B
S11316A0AF909F908F907F906F905F904F903F90FE
S11316B02F900895AF92BF92CF92DF92EF92FF9254
S11316C00F931F93CF93DF93EC017B015A016901C0
S11316D08E8580FF04C08A010E5F1F4F01C08A01FE
S11316E0CE0111DF9C01A501B701CE01E5DD5C014E
S11316F0892BC1F0CE0174DD2E813F8182179307BF
S113170088F088859985892B69F088859985E12CED
S1131710F12C00E020E030E0A90160E00E947217A3
S113172019861886C501DF91CF911F910F91FF9003
S1131730EF90DF90CF90BF90AF9008954F925F925B
S11317406F927F928F929F92AF92BF92CF92DF92CD
S1131750EF92FF920F931F93CF93DF93EC012B0132
S11317603A01580169018E8580FF05C06894882478
S113177081F8912C02C0812C912CA114B104C104D4
S1131780D10441F10FB6F8940F92CE0129DD7C010A
S11317908816990648F060E080E090E00E94941872
S11317A00E943B14998788870F900FBE8E149F0464
S11317B0A0F0E12CF12C00E010E0980140E050E0B2
S11317C0BA0180E00E94D31519861886CE0108DD7F
S11317D07C0103C0CE0104DD7C018E149F04E8F477
S11317E084019701A301B201CE01F8DD6C01892BBC
S11317F0B1F0C3D28A859B85892B69F08A859B8544
S1131800E12CF12C00E020E030E0A90160E00E942E
S11318107B161B861A86F1D302C0C12CD12CC601BB
S1131820DF91CF911F910F91FF90EF90DF90CF90B8
S1131830BF90AF909F908F907F906F905F904F90EC
S11318400895E0912916F0912A16808181110CC027
S11318508FEF9FEFDC018093F3159093F415A09321
S1131860F515B093F6150895E0912916F0912A160E
S11318700780F085E02D80819181A281B3818093DE
S1131880F3159093F415A093F515B093F6150895F8
S1131890CF93DF93EC018B8D9C8D0E948603CE0148
S11318A00E948603DF91CF9108954F925F926F92C9
S11318B07F928F929F92AF92BF92CF92DF92EF92DC
S11318C0FF920F93CF93DF932C015B014A013901FF
S11318D0E60165EA70E08B8D9C8D0E94B3328B8D9E
S11318E09C8D21E0821A9108880E991EA114B104DE
S11318F089F415C0822F90E0F501E80FF91F3081BB
S1131900DE01A80FB91F5D963C938081882329F0DE
S11319102F5F01C020E0203168F31CA601C01D8E9A
S11319200A3008F009E00A8F0DA71EA6CE01029620
S11319300E94D403CE010E960E94D403DB87CA878B
S11319408AE090E0A0E0B0E0801B9109A109B10910
S11319508E879F87A88BB98BDF8BCE8B84E0FE01AB
S1131960BF96DF011D928A95E9F71BAAA301B20174
S1131970C4010E94480499838883E114F10419F096
S1131980F701D183C083DF91CF910F91FF90EF9046
S1131990DF90CF90BF90AF909F908F907F906F908B
S11319A05F904F900895CF93C0E009C02BE0C29F91
S11319B0C00111248F5B994E0E94C303CF5FCA30CC
S11319C0A8F386E396E10E94C3038BE296E10E94AA
S11319D0C3038CE196E10E94C30381E196E10E9476
S11319E0C30385E096E10E94C30386E396E19093E6
S11319F02A16809329168BE296E1909328168093F9
S1131A002716CF910895CF93DF93EC010FB6F89486
S1131A100F92809104168F5F809304168091AF1605
S1131A209091B016892B51F4D093B016C093AF1691
S1131A3080910416813091F4B6DF10C08091FE15B8
S1131A4081110CC0E091AF16F091B016928D8A8D81
S1131A50891720F0D093B016C093AF168091F71574
S1131A608F5F8093F715EA8D8091FF158E1710F420
S1131A70E093FF158BE08E9FF0011124EF5BF94E8C
S1131A800180F281E02DFF83EE832681378139873F
S1131A902887A681B7819E012E5F3F4F15963C9300
S1131AA02E93149737832683EA8D8E9FF001112499
S1131AB0EF5BF94EFD87EC8780818F5F80830F9009
S1131AC00FBE8091FE15882351F0E091AF16F0917E
S1131AD0B016928D8A8D981710F40E949104DF91AC
S1131AE0CF910895CF93DF931BC00FB6F8940F9254
S1131AF0E0911816F0911916C085D185CE01029691
S1131B000E941504809104168150809304168091DC
S1131B1010168150809310160F900FBECE01B8DEC0
S1131B20809110168111E1CFDF91CF9108958F92AA
S1131B309F92AF92BF92CF92DF92EF92FF92CF9398
S1131B40DF936B017C01C42F8090001690900116E6
S1131B50A0900216B09003168091AF169091B01623
S1131B6002960E9415048FEFC816D806E806F806F8
S1131B70B1F5CC23A1F1E5E0F6E1A181B281C091F8
S1131B80AF16D091B016BF83AE83C091AF16D0917B
S1131B90B01616968D919C911797998788871696FB
S1131BA0CD91DC9117978091AF169091B016029663
S1131BB09D838C838091AF169091B01602961796F0
S1131BC09C938E931697A091AF16B091B0161D9664
S1131BD0FC93EE931C9780818F5F80833FC0C80C79
S1131BE0D91CEA1CFB1CE091AF16F091B016C2821E
S1131BF0D382E482F582C814D904EA04FB0468F4AD
S1131C006091AF167091B0168091271690912816A6
S1131C106E5F7F4F0E94D80321C06091AF16709110
S1131C20B0168091291690912A166E5F7F4F0E94FC
S1131C30D8038091F3159091F415A091F515B09106
S1131C40F615C816D906EA06FB0640F4C092F31549
S1131C50D092F415E092F515F092F615DF91CF913C
S1131C60FF90EF90DF90CF90BF90AF909F908F90B8
S1131C7008952F923F924F925F926F927F928F922C
S1131C809F92AF92BF92CF92DF92EF92FF920F9307
S1131C90CF93DF933C011B014A012901CA010E9431
S1131CA0DD026C01892B71F084E390E00E94DD0277
S1131CB0EC01892B19F0DC8ECB8E06C0C6010E9484
S1131CC0860302C0C0E0D0E0209761F0A12CB12CC3
S1131CD06E019201A401B101C301E7DDCE0193DEDF
S1131CE081E001C08FEFDF91CF910F91FF90EF90D2
S1131CF0DF90CF90BF90AF909F908F907F906F9028
S1131D005F904F903F902F900895EF92FF920F9322
S1131D100F2EF1EFEF2EF5E1FF2EF02D00E020E085
S1131D2030E040EC50E06FE672E08DEC90E0A1DF33
S1131D30813011F40E9438198130C9F4F8948FEF7E
S1131D409FEFDC018093F3159093F415A093F515A0
S1131D50B093F61581E08093FE1510920016109250
S1131D60011610920216109203160E945F048091CD
S1131D7006020F91FF90EF9008958091F0158F5F08
S1131D808093F01508950FB6F8940F9260910016A1
S1131D907091011680910216909103160F900FBE58
S1131DA00895CF92DF92EF92FF92CF93DF938091C9
S1131DB0F015811105C1C0900016D0900116E09075
S1131DC00216F09003168FEFC81AD80AE80AF80A28
S1131DD0C0920016D0920116E0920216F0920316F9
S1131DE0C114D104E104F104B1F480912916909155
S1131DF02A16209127163091281630932A162093FC
S1131E00291690932816809327168091F8158F5FD2
S1131E108093F81516DD8091F3159091F415A09137
S1131E20F515B091F615C816D906EA06FB0620F496
S1131E3080E0B2C081E001C080E0E0912916F09119
S1131E402A16908191110CC04FEF5FEFBA014093B5
S1131E50F3155093F4156093F5157093F6159CC023
S1131E60E0912916F0912A160780F085E02D008470
S1131E70F185E02D4281538164817581C416D506B4
S1131E80E606F70648F44093F3155093F41560936F
S1131E90F5157093F61580C0A485B585C681D781E4
S1131EA0208531853F832E83C085D1852681378166
S1131EB03D832C8311964D915C9112979F012E5F67
S1131EC03F4F4217530731F44085518512965C9376
S1131ED04E931197158614869C9191509C93A08DD6
S1131EE0B18D109709F1C289D389448955895F83DB
S1131EF04E83C489D589428953895D834C83119665
S1131F006D917C911297AF01425F5F4F6417750723
S1131F1031F44489558912965C934E931197118E2E
S1131F20108E9C9191509C93A28D9091FF159A17BD
S1131F3010F4A093FF159BE09A9FD0011124AF5B8E
S1131F40B94E11960D90BC91A02DB783A683169619
S1131F504D915C911797518740871696CD91DC91EE
S1131F6017973D832C8317963C932E931697A28D37
S1131F709A9FD0011124AF5BB94EB587A4879C9179
S1131F809F5F9C93228DE091AF16F091B016928DD5
S1131F90291708F04FCF51CFE091AF16F091B0164A
S1131FA0E28D9BE0E99FF0011124EF5BF94E9081F3
S1131FB0923008F081E09091F915911116C016C085
S1131FC08091FA159091FB15A091FC15B091FD1527
S1131FD00196A11DB11D8093FA159093FB15A09352
S1131FE0FC15B093FD1580E001C081E0DF91CF9135
S1131FF0FF90EF90DF90CF900895CF92DF92EF9211
S1132000FF92CF93DF930FB6F8940F928091F0155F
S113201081508093F0158091F0158111BEC080919C
S11320200416811188C0BCC0E0912316F0912416D7
S11320300084F185E02DA08DB18DC289D389848976
S113204095899F838E83C489D589828993899D8349
S11320508C8311962D913C911297CF010E962817DF
S1132060390731F48489958912969C938E9311973C
S1132070118E108E8C9181508C93A485B585C68168
S1132080D781808591859F838E83C085D185868104
S113209097819D838C8311968D919C9112979F01BA
S11320A02E5F3F4F8217930731F4808591851296F6
S11320B09C938E931197158614868C9181508C93E2
S11320C0A28D8091FF158A1710F4A093FF158BE061
S11320D08A9FD0011124AF5BB94E11960D90BC912B
S11320E0A02DB783A68316964D915C9117975187BF
S11320F040871696CD91DC9117973D832C831796D4
S11321003C932E931697A28D8A9FD0011124AF5B26
S1132110B94EB587A4878C918F5F8C93928DA091D3
S1132120AF16B091B0165A968C91981730F081E0A2
S11321308093F91502C0E0E0F0E080911C16811153
S113214073CFEF2B09F07DDBC090FA15D090FB150F
S1132150E090FC15F090FD15C114D104E104F104E4
S1132160A1F01FDE882319F081E08093F91581E046
S1132170C81AD108E108F108A1F71092FA151092D3
S1132180FB151092FC151092FD158091F91588230A
S113219031F00E94910481E003C080E001C080E03E
S11321A00F900FBEDF91CF91FF90EF90DF90CF9013
S11321B008958F929F92AF92BF92CF92DF92EF9247
S11321C0FF921F93CF93DF93EC016A017B01D5DD6E
S11321D08090001690900116A0900216B0900316FD
S11321E088819981AA81BB81AC01BD014C0D5D1D23
S11321F06E1D7F1D88169906AA06BB0660F4481753
S113220059076A077B0798F484169506A606B7064D
S113221080F010E013C0481759076A077B0758F08D
S113222084169506A606B70640F010E007C010E035
S113223005C011E003C011E001C011E048835983D7
S11322406A837B83112341F0CB01BA0168197909B0
S11322508A099B0940E06BDCD0DE811102C00E9438
S11322609104812FDF91CF911F91FF90EF90DF9028
S1132270CF90BF90AF909F908F900895CF92DF92B0
S1132280EF92FF926B017C01672B682B692B39F06D
S113229074DD40E0C701B6014ADCAFDE01C080E076
S11322A0811102C00E949104FF90EF90DF90CF90C3
S11322B008958091F015882321F081E08093F91529
S11322C008951092F915E091AF16F091B01620819F
S11322D03181E091AF16F091B016838D948D821701
S11322E0930760F06091AF167091B016635E7F4FF4
S11322F08091AF169091B0160E94C61B8091FF1575
S113230001C08150282F30E09BE0929FF001939F01
S1132310F00D1124EF5BF94E9081992391F39BE02A
S1132320929FA001939F500D1124DF010180F2813F
S1132330E02D0480F581E02D1296FC93EE93119725
S11323404C5B594EE417F50729F444815581FD018E
S1132350528341839BE0929FF001939FF00D1124DF
S1132360EF5BF94E0180F281E02D208531853093B9
S1132370B0162093AF168093FF150895CF92DF9285
S1132380EF92FF926A017B016091AF167091B016D3
S1132390625F7F4F0E94D80341E0C701B601C7DBEB
S11323A0FF90EF90DF90CF9008950F931F93CF93FA
S11323B0DF93FC01A091AF16B091B01670681E9621
S11323C04D935D936D937C935197A181B281C0919C
S11323D0AF16D091B016BB8BAA8BC091AF16D0911B
S11323E0B01616968D919C9117979D8B8C8B169693
S11323F0CD91DC9117978091AF169091B0160E96FF
S11324009D838C838091AF169091B0160E9617968B
S11324109C938E931697A091AF16B091B0165996CF
S1132420FC93EE93589780818F5F808341E0C901CC
S1132430B8017DDBDF91CF911F910F910895CF9368
S1132440DF93FC01CB01BA01A181B281C091AF1627
S1132450D091B016BB8BAA8BC091AF16D091B01699
S113246016964D915C9117975D8B4C8B1696CD917A
S1132470DC9117974091AF165091B016425F5F4FB1
S11324805D834C834091AF165091B016425F5F4F0D
S113249017965C934E931697A091AF16B091B01611
S11324A05996FC93EE93589730813F5F30832223F3
S11324B019F06FEF7FEFCB01422F39DBDF91CF9122
S11324C00895CF93DF93DC011796ED91FC91189753
S11324D00084F185E02DA08DB18DC289D3898489D2
S11324E095899F838E83C489D589828993899D83A5
S11324F08C8311968D919C9112979F01225F3F4F7F
S11325008217930731F48489958912969C938E934C
S11325101197118E108E8C9181508C938091F015AF
S1132520811152C0A485B585C681D78180859185E6
S11325309F838E83C085D185868197819D838C837B
S113254011968D919C9112979F012E5F3F4F821798
S1132550930731F48085918512969C938E931197FD
S1132560158614868C9181508C93A28D8091FF15D1
S11325708A1710F4A093FF158BE08A9FD0011124D1
S1132580AF5BB94E11960D90BC91A02DB783A68375
S113259016964D915C911797518740871696CD9169
S11325A0DC9117973D832C8317963C932E931697B3
S11325B0A28D8A9FD0011124AF5BB94EB587A48741
S11325C08C918F5F8C931CC04CE156E1DA0111961B
S11325D0CD91DC911297D38BC28B8E819F81958B89
S11325E0848B8E819F81DC0115963C932E931497E6
S11325F03F832E83518F408FDA018C918F5F8C93B0
S1132600928DE091AF16F091B016828D891720F467
S113261081E08093F91501C080E0DF91CF910895A6
S1132620CF93DF93DC0170684D935D936D937C933E
S113263013971896ED91FC9119971A964D915C9108
S11326401B9714968D919C91159716962D913C91FC
S11326501797EC013F832E8316968D919C911797C3
S113266014962D913C911597EC013D832C83EA013E
S113267089819A81A817B90731F416968D919C9196
S113268017979A8389831B961C921E921A97DA01D4
S11326908C9181508C93A485B585C681D781808522
S11326A091859F838E83C085D185868197819D8303
S11326B08C8311968D919C9112979F012E5F3F4FB1
S11326C08217930731F48085918512969C938E939B
S11326D01197158614868C9181508C93A28D8091CC
S11326E0FF158A1710F4A093FF158BE08A9FD00181
S11326F01124AF5BB94E11960D90BC91A02DB783F8
S1132700A68316964D915C9117975187408716962C
S1132710CD91DC9117973D832C8317963C932E9390
S11327201697A28D8A9FD0011124AF5BB94EB5874D
S1132730A4878C918F5F8C93928DE091AF16F0916A
S1132740B016828D891718F481E08093F915DF9112
S1132750CF9108950FB6F8940F922091F815FC01CB
S113276020834091001650910116609102167091D9
S1132770031641835283638374830F900FBE0895BD
S11327802091F815FC012083409100165091011608
S1132790609102167091031641835283638374839C
S11327A008958F929F92AF92BF92CF92DF92EF9251
S11327B0FF920F931F93CF93DF93FB010FB6F8940F
S11327C00F92C0900016D0900116E0900216F0907F
S11327D00316DC0111960D911D912D913C911497D6
S11327E046015701801A910AA20AB30A4081518115
S11327F0628173814F3FBFEF5B076B077B0739F142
S1132800EC01B881A091F815BA1759F0C016D10699
S1132810E206F30630F0108211821282138281E004
S113282017C084169506A606B70658F44819590920
S11328306A097B094083518362837383A1DF80E04B
S113284007C0108211821282138281E001C080E0ED
S11328500F900FBEDF91CF911F910F91FF90EF90DA
S1132860DF90CF90BF90AF909F908F90089581E0BC
S11328708093F91508958091AF169091B01608953C
S11328808091FE15882331F08091F015811104C0E8
S113289082E0089581E0089580E008950F931F93E6
S11328A0CF93DF93FC01892B09F477C0828DA0912B
S11328B0AF16B091B0165A969C91891708F063C070
S11328C04685578560897189772394F0A091AF1666
S11328D0B091B0165A969C914AE050E060E070E0E6
S11328E0491B51096109710946875787608B718BB0
S11328F0248535854BE0849FC00111248F5B994E5C
S113290028173907B9F5EF018F010E5F1F4FC80172
S11329100E941504E091AF16F091B016E28DEA8F93
S11329208091FF158E1710F4E093FF158BE08E9FB6
S1132930F0011124EF5BF94E0180F281E02DFF8359
S1132940EE832681378139872887A681B78115963A
S11329501C930E93149717830683EA8D8E9FF001C0
S11329601124EF5BF94EFD87EC8780818F5F8083B4
S113297081E016C0A091AF16B091B0165A968C9112
S1132980828F81E00DC095A5E091AF16F091B0164D
S1132990828D981720F080E003C080E001C081E0C0
S11329A0DF91CF911F910F9108950F931F93CF93B0
S11329B0DF93FC01892B09F449C086A5815086A7C1
S11329C0228D95A5291709F443C0811143C0EF0155
S11329D08F010E5F1F4FC8010E941504EDA5EA8FF9
S11329E08AE090E0A0E0B0E08E1B9109A109B10952
S11329F08E879F87A88BB98B8091FF158E1710F453
S1132A00E093FF158BE08E9FF0011124EF5BF94EEC
S1132A100180F281E02DFF83EE832681378139879F
S1132A202887A681B78115961C930E931497178354
S1132A300683EA8D8E9FF0011124EF5BF94EFD872A
S1132A40EC8780818F5F808381E005C080E003C0D4
S1132A5080E001C080E0DF91CF911F910F91089534
S1132A600F931F93CF93DF93FC01892B09F45AC072
S1132A7085A5861708F4862F928D891709F452C00C
S1132A8026A5213009F04EC0828F4685578560897E
S1132A907189772364F04AE050E060E070E0481BFD
S1132AA051096109710946875787608B718B2485A9
S1132AB035854BE0949FC00111248F5B994E2817F4
S1132AC0390781F5EF018F010E5F1F4FC8010E9486
S1132AD01504EA8D8091FF158E1710F4E093FF150D
S1132AE08BE08E9FF0011124EF5BF94E0180F2819F
S1132AF0E02DFF83EE832681378139872887A681DD
S1132B00B78115961C930E93149717830683EA8D49
S1132B108E9FF0011124EF5BF94EFD87EC878081D5
S1132B208F5F8083DF91CF911F910F910895CF9292
S1132B30DF92EF92FF92E091AF16F091B0166685A6
S1132B40778580899189E091AF16F091B016A091B4
S1132B50AF16B091B0165A962C910F2EFAE0CF2EE4
S1132B60D12CE12CF12CF02DC21AD108E108F10886
S1132B70C686D786E08AF18AFF90EF90DF90CF90E7
S1132B8008958091AF169091B016892B39F0E09199
S1132B90AF16F091B01686A58F5F86A78091AF1609
S1132BA09091B01608954F925F926F927F92AF9278
S1132BB0BF92CF92DF92EF92FF920F931F93CF9326
S1132BC0DF93280139010FB6F8940F92E091AF1604
S1132BD0F091B016C82FD0E0EC0FFD1F83A982300E
S1132BE079F1E091AF16F091B016CE01880F991FDC
S1132BF0880F991FE80FF91F87A590A9A1A9B2A969
S1132C004095509560957095482359236A237B23FA
S1132C1047A750AB61AB72ABE091AF16F091B01621
S1132C20EC0FFD1F81E083ABA114B104C104D104F6
S1132C3039F041E0C601B5010E94970D0E9491044C
S1132C400F900FBE0FB6F8940F92E114F104A1F0A7
S1132C50E091AF16F091B016CE01880F991F880F3E
S1132C60991FE80FF91F87A590A9A1A9B2A9F70197
S1132C7080839183A283B383E091AF16F091B01661
S1132C80EC0FFD1F83A98230E9F4E091AF16F091B7
S1132C90B016CE01880F991F880F991FE80FF91FEE
S1132CA087A590A9A1A9B2A9409450946094709466
S1132CB0482259226A227B2247A650AA61AA72AAF4
S1132CC081E001C080E02091AF163091B016C20FB0
S1132CD0D31F1BAA0F900FBEDF91CF911F910F91AD
S1132CE0FF90EF90DF90CF90BF90AF907F906F9068
S1132CF05F904F9008958F929F92AF92BF92EF9200
S1132D00FF920F93CF93DF93DC010FB6F8940F92E9
S1132D10E114F10489F0E62FF0E0EE0FFF1FEE0F4F
S1132D20FF1FE80FF91F87A490A8A1A8B2A8F70174
S1132D3080829182A282B38270E0FD01E60FF71FC8
S1132D4083A992E093AB023001F118F4013031F021
S1132D504DC0033079F10430D1F148C0660F771FBC
S1132D60660F771FFD01E60FF71F87A490A8A1A89F
S1132D70B2A8BA01A901482959296A297B2947A778
S1132D8050AB61AB72AB01E034C0660F771F660FC6
S1132D90771FFD01E60FF71F47A550A961A972A986
S1132DA04F5F5F4F6F4F7F4F47A750AB61AB72AB25
S1132DB001E01FC0660F771F660F771FFD01E60F46
S1132DC0F71F27A730AB41AB52AB01E012C08230F2
S1132DD079F0660F771F660F771FFD01E60FF71F67
S1132DE027A730AB41AB52AB01E003C001E001C007
S1132DF000E0813009F069C01C96ED91FC911D97AB
S1132E001696CD91DC91179718968D919C911997F0
S1132E109F838E831896CD91DC91199716968D9188
S1132E209C9117979D838C83818192819D012E5F54
S1132E303F4F8217930731F418968D919C911997FF
S1132E40928381831D961C921E921C9780818150CF
S1132E5080835A96EC915A978091FF158E1710F43F
S1132E60E093FF158BE08E9FF0011124EF5BF94E88
S1132E700180F281E02D1796FC93EE93169746811C
S1132E80578119965C934E931897C681D7813D83D9
S1132E902C83378326835A96EC915A978E9FF001A0
S1132EA01124EF5BF94E1D96FC93EE931C978081E1
S1132EB08F5F80835A969C91E091AF16F091B01683
S1132EC0828D891710F40E9491040F900FBE802FF9
S1132ED0DF91CF910F91FF90EF90BF90AF909F90B3
S1132EE08F9008958F929F92AF92BF92CF92DF926C
S1132EF0EF92FF920F93CF93DF93DC01E114F1047F
S1132F0089F0E62FF0E0EE0FFF1FEE0FFF1FE80F32
S1132F10F91F87A490A8A1A8B2A8F7018082918282
S1132F20A282B38270E0FD01E60FF71F93A982E04D
S1132F3083AB023001F118F4013031F04DC003309D
S1132F4079F10430D1F148C0660F771F660F771FFF
S1132F50FD01E60FF71F87A490A8A1A8B2A8BA01A3
S1132F60A901482959296A297B2947A750AB61AB94
S1132F7072AB81E034C0660F771F660F771FFD01C7
S1132F80E60FF71F47A550A961A972A94F5F5F4FCC
S1132F906F4F7F4F47A750AB61AB72AB81E01FC04F
S1132FA0660F771F660F771FFD01E60FF71F27A730
S1132FB030AB41AB52AB81E012C0923079F0660F76
S1132FC0771F660F771FFD01E60FF71F27A730ABAA
S1132FD041AB52AB81E003C081E001C080E091309D
S1132FE009F096C09091F01591115FC01C96ED9177
S1132FF0FC911D971696CD91DC91179718962D91FB
S11330003C9119973F832E831896CD91DC911997A3
S113301016962D913C9117973D832C8341815281C3
S11330209D012E5F3F4F4217530731F418964D917F
S11330305C911997528341831D961C921E921C9792
S11330409081915090835A96EC915A979091FF15E4
S11330509E1710F4E093FF159BE09E9FF00111244E
S1133060EF5BF94E0180F281E02D1796FC93EE930D
S113307016974681578119965C934E931897C6818B
S1133080D7813D832C83378326835A96EC915A97B4
S11330909E9FF0011124EF5BF94E1D96FC93EE9375
S11330A01C9790819F5F908321C06CE176E1FB01C6
S11330B0C181D2815396DC93CE9352972E813F8166
S11330C055963C932E9354974E815F819D01225FC8
S11330D03F4FFA01358324833F832E8359967C9393
S11330E06E935897FB0190819F5F90835A962C9121
S11330F0E091AF16F091B016928D921748F4C11476
S1133100D10419F091E0F601908391E09093F915C0
S1133110DF91CF910F91FF90EF90DF90CF90BF9010
S1133120AF909F908F900895009721F48091AF16EF
S11331309091B0160FB6F8940F9270E0FC01E60F70
S1133140F71F23A9223031F4FC01E60FF71F13AA5D
S113315081E001C080E00F900FBE0895DC01E09192
S1133160BB16F091BC16808191E0811190E09C9394
S1133170911108C00780F085E02D60817181828102
S11331809381089560E070E0CB010895CF92DF92BF
S1133190EF92FF920F931F93FC0142835383648346
S11331A07583938782870417150726073707C0F0AE
S11331B00C191D092E093F0986859785A089B189B7
S11331C0081719072A073B0700F5BF016E5F7F4FF9
S11331D08091B9169091BA160E94D80380E018C065
S11331E00C151D052E053F0528F44C155D056E05CF
S11331F07F0568F4BF016E5F7F4F8091BB1690918D
S1133200BC160E94D80380E003C081E001C081E0C5
S11332101F910F91FF90EF90DF90CF9008950FB61C
S1133220F8940F928091B7169091B816892BE9F40F
S113323088EC96E10E94C3038DEB96E10E94C303E0
S113324088EC96E19093BC168093BB168DEB96E1C7
S11332509093BA168093B91640E067E08AE00E9422
S113326086069093B8168093B7160F900FBE0895F4
S1133270EF92FF920F93D3DF8091B7169091B81617
S1133280892B91F00F2EF5EBEF2EF6E1FF2EF02DAA
S113329003E020E030E040EC50E064E772E087EDCA
S11332A090E00E94390E01C080E00F91FF90EF90F2
S11332B008958F929F92AF92BF92CF92DF92EF9236
S11332C0FF920F931F93CF93DF93CDB7DEB727976A
S11332D00FB6F894DEBF0FBECDBFE091B716F091E4
S11332E0B816309781F169832A833B834C835D83CD
S11332F09F838E836630F4F4C3DA823069F400E08D
S1133300A7019601BE016F5F7F4F8091B716909120
S1133310B8160E94A90618C000E020E030E0A90118
S1133320BE016F5F7F4F8091B7169091B8160E94CF
S1133330A9060AC020E0A801BE016F5F7F4FCF013C
S11333400E94590701C080E027960FB6F894DEBFAB
S11333500FBECDBFDF91CF911F910F91FF90EF90E2
S1133360DF90CF90BF90AF909F908F9008958F92F1
S11333709F92AF92BF92CF92DF92EF92FF920F9300
S11333801F93CF93DF933BC00780F085E02D8080AF
S11333909180A280B380C085D1858E010E5F1F4FBE
S11333A0C8010E941504EC89FD89CE0119958E8906
S11333B082FF25C08E859F85A889B989880D991DAE
S11333C0AA1DBB1D88169906AA06BB0670F48A833B
S11333D09B83AC83BD83DB87CA87B8018091BB160E
S11333E09091BC160E94D8030AC0C12CD12C76013E
S11333F000E010E0A501940160E0CE015ADFE09105
S1133400BB16F091BC1680818111BECF8091B91694
S11334109091BA169093BC168093BB16F093BA168B
S1133420E093B916DF91CF911F910F91FF90EF9028
S1133430DF90CF90BF90AF909F908F900895CF92E0
S1133440DF92EF92FF92CF93DF93EC010E94C30EC1
S11334506B017C018091B1169091B216A091B316C4
S1133460B091B416C816D906EA06FB0620F47FDF2D
S113347081E0888301C01882C092B116D092B2163E
S1133480E092B316F092B416C701B601DF91CF9162
S1133490FF90EF90DF90CF9008954F925F926F92DC
S11334A07F928F929F92AF92BF92CF92DF92EF92D0
S11334B0FF920F931F93CF93DF934B015C0129017C
S11334C03A01E091BB16F091BC160780F085E02D1F
S11334D0C085D185CE0102960E9415048E8982FF93
S11334E01BC04E855F8568897989480D591D6A1D01
S11334F07B1D7501640193018201CE0147DE88239F
S113350069F0C12CD12C760100E010E0A5019401F2
S113351060E0CE01CEDE02C08E7F8E8BEC89FD8909
S1133520CE011995DF91CF911F910F91FF90EF90EC
S1133530DF90CF90BF90AF909F908F907F906F90CF
S11335405F904F9008958F929F92AF92BF92CF92C7
S1133550DF92EF92FF921F93CF93DF931F92CDB729
S1133560DEB76B017C01142F0E94BD0ECE010196C3
S113357066DF4B015C01898181112DC011110DC0E1
S11335808C149D04AE04BF0440F00E94FD0FA501FD
S11335909401C701B60181DF20C0112341F0E091FD
S11335A0B916F091BA16808111E0811110E0B701CB
S11335B0A601481959096A097B09212F8091B71678
S11335C09091B8160E94D4080E94FD0F811105C085
S11335D00E94910402C00E94FD0F0F90DF91CF91D1
S11335E01F91FF90EF90DF90CF90BF90AF909F908E
S11335F08F900895AF92BF92CF92DF92EF92FF9295
S11336000F931F93CF93DF93CDB7DEB728970FB6F1
S1133610F894DEBF0FBECDBF82C0898188230CF42D
S11336207EC0AE80BF80D5011C968D919C911D9764
S1133630892B21F0C50102960E941504CE0108963B
S1133640FEDE8B019C01E9810E2E000CFF0BEA309B
S1133650F10508F064C08827EE58FF4F8F4F0C9493
S11336607D31F50186898160868BCA80DB80EC80A0
S1133670FD8046855785608971894C0D5D1D6E1DE1
S11336807F1DC50183DD882309F449C0D501549603
S1133690ED91FC915597C5011995F501868982FF35
S11336A03EC04A815B816C817D8186859785A08936
S11336B0B1899A01AB01280F391F4A1F5B1FC12C26
S11336C0D12C760100E010E060E0C501F2DD27C0F6
S11336D0D50156968C9156978E7F56968C931FC023
S11336E0F50186898160868B4A815B816C817D814D
S11336F046875787608B718B400F511F621F731F62
S113370068017901C50142DD0AC0F501868981FDA0
S113371004C0C5010E94860302C08E7F868B20E010
S113372030E0A901BE016F5F7F4F8091B716909181
S1133730B8160E949407811170CF28960FB6F8949A
S1133740DEBF0FBECDBFDF91CF911F910F91FF90D0
S1133750EF90DF90CF90BF90AF900895089584B11B
S1133760806884B985B1806885B9089583B180681B
S113377083B90895F4DF2FEF80E792E02150804071
S11337809040E1F700C00000F1DFF5CFE8DF2FEF54
S113379087EA91E6215080409040E1F700C00000A4
S11337A0E5DFF5CF40E062E08AE00E948606909370
S11337B0E6168093E51640E062E08AE00E94860601
S11337C09093E4168093E31640E062E08AE00E945E
S11337D086069093E2168093E11640E062E08AE068
S11337E00E9486069093E0168093DF1640E062E024
S11337F08AE00E9486069093DE168093DD1641E0EF
S113380060E070E08EE690E00E94330A9093D41654
S11338108093D31640E066E18AE00E948606909386
S1133820DC168093DB1608958CE792E00E941C332B
S1133830F2D683E00E9455280E94C6280E94F528EB
S11338406091D3167091D41681E00C94AE2408953F
S11338500E9429019093DA168093D9160E942901B7
S11338609093D8168093D7160895AF92BF92CF92B3
S1133870DF92EF92FF920F931F93A090D716B09010
S1133880D816C090D916D090DA16E090DD16F090D4
S1133890DE160091DF161091E0162091E1163091AA
S11338A0E2164091E3165091E4166091E51670918A
S11338B0E6168091DB169091DC16B8D12091D716CC
S11338C03091D8164091D9165091DA166091E316CA
S11338D07091E4168091E5169091E6166AD44091B1
S11338E0D7165091D8166091D9167091DA16809136
S11338F0E1169091E2165FD04091D7165091D816F8
S11339006091D9167091DA168091DF169091E016C5
S1133910A2D58091DD169091DE16E3D48091DB165A
S11339209091DC16E2D38091D3169091D416C9D22B
S11339301F910F91FF90EF90DF90CF90BF90AF90C9
S1133940089581E00E944D079093D6168093D51672
S1133950089580E00E94F92C25DF66DF79DF85DF9A
S1133960F0DF8091D5169091D61675D084E992E057
S11339700E941C330E94850E80E090E008950F930E
S1133980CF93DF931F921F92CDB7DEB79A838983BB
S113399000E02FEF3FEFA901BE016F5F7F4F8091E1
S11339A0E9169091EA160E94A9060F900F90DF91F4
S11339B0CF910F910895EF92FF920F939093EA168F
S11339C08093E9165093E8164093E716E12CF12C06
S11339D008E020E030E040EC50E060EA72E088E289
S11339E09DE10E94390E0F91FF90EF9008958FEBA7
S11339F09CE10C947A280895CF92DF92EF92FF9283
S1133A000F93CC24CA94DC2C760101E020E043E03F
S1133A1050E060E070E08091E7169091E8160E9413
S1133A203C010E947F28882319F080E090E0A7DF02
S1133A3044E050E060E070E08091E7169091E81671
S1133A400E94DC010F91FF90EF90DF90CF900895DA
S1133A50CEDFD2DFFECF9093FA168093F91680ED75
S1133A6097E09093F8168093F7169093F616809348
S1133A70F51688E19CEF9093F4168093F3169093D7
S1133A80F2168093F1161092F0161092EF1610921F
S1133A90EE161092ED1608950F93CF93DF93CDB7E2
S1133AA0DEB74AEB50E060E070E08091F916909147
S1133AB0FA160E942308813009F068C08F8980FFBC
S1133AC00BC02D8930E0322F22279E89290F311D0A
S1133AD03093EC162093EB1681FF0BC02B8930E05A
S1133AE0322F22279C89290F311D3093F016209301
S1133AF0EF1682FF0BC0298930E0322F22279A89E2
S1133B00290F311D3093EE162093ED1683FF0BC061
S1133B102F8530E0322F22279889290F311D3093C9
S1133B20F4162093F31684FF0BC02D8530E0322F5A
S1133B3022279E85290F311D3093F2162093F1160A
S1133B4085FF0BC02B8530E0322F22279C85290F5F
S1133B50311D3093F8162093F71686FF0BC0898524
S1133B6090E0982F88272A85820F911D9093F6164E
S1133B708093F51600E020E030E0A90160E070E0F9
S1133B808091F9169091FA160E94A906DF91CF91BF
S1133B900F9108950F93CF93DF934AEB50E060E0C9
S1133BA070E08091F9169091FA160E9423088130F2
S1133BB099F4D091F316C091F41600E020E030E0BF
S1133BC0A90160E070E08091F9169091FA160E94C4
S1133BD0A9068D2F9C2F00C0DF91CF910F910895DE
S1133BE00F93CF93DF934AEB50E060E070E0809155
S1133BF0F9169091FA160E942308813099F4D09115
S1133C00F116C091F21600E020E030E0A90160E076
S1133C1070E08091F9169091FA160E94A9068D2FF2
S1133C209C2F00C0DF91CF910F910895AF92BF9266
S1133C30CF92DF92EF92FF920F931F9390930B1703
S1133C4080930A1770930917609308175093071706
S1133C504093061730930517209304171093031706
S1133C6000930217F0920117E0920017D092FF160A
S1133C70C092FE16B092FD16A092FC16E12CF12C17
S1133C8009E020E030E040EC50E068EA72E08FE5C3
S1133C909FE10E94390E1F910F91FF90EF90DF90EA
S1133CA0CF90BF90AF900895CF92DF92EF92FF92A2
S1133CB00F93CF93DF93CDB7DEB7A2970FB6F894E7
S1133CC0DEBF0FBECDBF43E050E060E070E0809106
S1133CD0FE169091FF160E94DC01DC01CB0183707B
S1133CE09927AA27BB270397A105B10519F481E0F9
S1133CF08093FB160F2EF8EACF2EF8E4DF2EE12C8A
S1133D00F12CF02D01E021E04FE050E060E070E0A4
S1133D108091FC169091FD160E943C01DC01CB01C0
S1133D208F709927AA27BB270F97A105B10519F012
S1133D3081E08093FB162CE632E040E050E0BE01C7
S1133D406F5F7F4F80910817909109170E94940725
S1133D50813021F080ED97E09A8389832CE632E06C
S1133D6040E050E0BE016D5F7F4F80910617909157
S1133D7007170E949407813021F088E19CEF9C830F
S1133D808B832CE632E040E050E0BE016B5F7F4F56
S1133D9080910417909105170E949407813011F0C7
S1133DA01E821D822CE632E040E050E0BE01695FD5
S1133DB07F4F80910217909103170E9494078130DE
S1133DC011F018861F8289819A81C3D38B819C81CB
S1133DD0CDD38D819E81D7D38F819885E0D3809177
S1133DE0FB168111E8D361E0CE01099691D38A854F
S1133DF0882371F000E02CE632E040E050E0BE01A0
S1133E00675F7F4F80910A1790910B170E94A90654
S1133E108091FB16811135C000E02CE632E040E0D1
S1133E2050E0BE016F5F7F4F8091001790910117A2
S1133E300E94A9062CE632E040E050E0BE016D5F2E
S1133E407F4F80910017909101170E94A9062CE6DC
S1133E5032E040E050E0BE016B5F7F4F809100177D
S1133E60909101170E94A9062CE632E040E050E050
S1133E70BE01695F7F4F80910017909101170E94E6
S1133E80A9061092FB160E94C30E6F8F78A389A314
S1133E909AA348EA58E460E070E0CE014F960E948D
S1133EA0D910A2960FB6F894DEBF0FBECDBFDF9136
S1133EB0CF910F91FF90EF90DF90CF900895F4DEB3
S1133EC0FECFEF92FF920F9390930D1780930C17F0
S1133ED0E12CF12C08E020E030E040EC50E066EB0F
S1133EE072E089EB9FE10E94390E0F91FF90EF90F1
S1133EF008950F931F93CF93DF93CDB7DEB76697E3
S1133F000FB6F894DEBF0FBECDBF0FEF1FEF9801C1
S1133F1046E150E0BE016F5F7F4F80910C17909196
S1133F200D170E949E0B8A818F30C1F48DB79EB706
S1133F3046970FB6F8949EBF0FBE8DBFADB7BEB700
S1133F40119686E1FE01319601900D928A95E1F772
S1133F50A3DD0FB6F894DEBF0FBECDBF66960FB6D5
S1133F60F894DEBF0FBECDBFDF91CF911F910F91AB
S1133F700895BFDFFECF0F931F93CF93DF93CDB789
S1133F80DEB764970FB6F894DEBF0FBECDBF81E0F5
S1133F900E946E2D31D5ADD79F938F9383EC92E021
S1133FA09F938F930E940933A5D6A3D79F938F9392
S1133FB086ED92E09F938F930E9409338E010F5FE9
S1133FC01F4FC8012BD595D71F930F939F938F93A2
S1133FD08FEE92E09F938F930E940933C8013AD5E4
S1133FE088D79F938F931F930F9383E093E09F93BE
S1133FF08F930E940933A80168E173E089E393E099
S113400057D777D79F938F931F930F9388E193E0AC
S11340109F938F9389E393E09F938F938AE493E034
S11340209F938F930E94093348D563D79F938F93AF
S113403080E893E09F938F930E9409330FB6F8941E
S1134040DEBF0FBECDBF81E032D653D79F938F938F
S11340508FE893E09F938F930E94093384EF91E05C
S113406031D647D79F938F9381E08F9384EF8F93BB
S113407080EB93E09F938F930E9409330FB6F894DB
S1134080DEBF0FBECDBF1AE080E01DD5082F31D7AB
S11340909F938F931F921F9380ED93E09F938F9331
S11340A00E9409330F900F900F900F900F900F9074
S11340B0083059F080E00E94A02D66E371E080E0B2
S11340C090E00E943E111150F9F6083019F481E095
S11340D00E94912D64960FB6F894DEBF0FBECDBF3B
S11340E0DF91CF911F910F910895EF92FF920F935B
S11340F090930F1780930E17E12CF12C08E020E029
S113410030E040EC50E060EF73E086ED90E20E9416
S1134110390E0F91FF90EF90089581E05FD462E033
S113412070E080E090E00E943E1180E057D466E9A0
S113413070E080E090E00E943E1109D41CCF089505
S1134140CF93DF93CDB7DEB766970FB6F894DEBF93
S11341500FBECDBF2FEF3FEFA901BE016F5F7F4FB1
S113416080910E1790910F170E949407BE016F5F04
S11341707F4F80E0D1D48D3029F48BEF93E00E94FF
S11341801C330BC08E3029F486E194E00E941C336A
S113419004C083E394E00E941C3366960FB6F8943F
S11341A0DEBF0FBECDBFDF91CF910895B6DFC8DF6C
S11341B0FECFEF92FF920F9390931B1780931A17E1
S11341C07093191760931817509317174093161785
S11341D03093151720931417E12CF12C08E020E0FC
S11341E030E040EC50E064E474E08FE691E20E9439
S11341F0390E0F91FF90EF900895CF92DF92EF92D6
S1134200FF920F93CC24CA94DC2C760100E021E0C9
S113421043E050E060E070E080911617909117172A
S11342200E943C0110D2811127C066E070E080E05A
S113423090E00E943E111CD2811111C063E070E035
S113424080E090E00E943E1139D29093131780933E
S113425012175AD2909311178093101719C080ED3A
S113426097E0909313178093121788E19CEF909333
S11342701117809310170CC080ED97E090931317DB
S11342808093121788E19CEF909311178093101775
S113429000E02FEF3FEFA90162E177E180911A1767
S11342A090911B170E94A9062FEF3FEFA90160E12F
S11342B077E180911817909119170E94A90643E09D
S11342C050E060E070E080911417909115170E94FF
S11342D0DC010F91FF90EF90DF90CF9008958DDF78
S11342E0FECFEF92FF920F9390931D1780931C17AC
S11342F0E12CF12C08E020E030E040EC50E06CE5EB
S113430074E088E292E20E94390E0F91FF90EF90E0
S1134310089560E081E022C708950F931F93CF931F
S1134320DF93CDB7DEB728970FB6F894DEBF0FBE84
S1134330CDBF2FEF3FEFA901BE016F5F7F4F80918B
S11343401C1790911D170E9494072FEF3FEFA901AE
S1134350BE016D5F7F4F80911C1790911D170E94C5
S113436094072FEF3FEFA901BE016B5F7F4F809150
S11343701C1790911D170E9494072FEF3FEFA9017E
S1134380BE01695F7F4F80911C1790911D170E9499
S1134390940766E371E080E090E00E943E11FADB4E
S11343A08C011EDC08312CEF1207C9F02B813C81F3
S11343B020173107A4F41F930F933F932F9386E69E
S11343C094E09F938F930E9409336CE981E0C6D6F1
S11343D00F900F900F900F900F900F902EC0883178
S11343E02CEF9207C9F02B813C8182179307A4F428
S11343F09F938F933F932F9387EB94E09F938F9397
S11344000E94093364E681E0A9D60F900F900F90C3
S11344100F900F900F9011C08C818F938B818F938D
S113442089E095E09F938F930E94093360E081E0D7
S113443095D60F900F900F900F9028960FB6F89482
S1134440DEBF0FBECDBFDF91CF911F910F910895B5
S113445060DF63DFFECFEF92FF920F9390932117FB
S11344608093201750931F1740931E17E12CF12CB3
S113447008E020E030E040EC50E06EE575E086E8CE
S113448092E20E94390E0F91FF90EF900895CF921F
S1134490DF92EF92FF920F93CF93DF931F921F92BD
S11344A0CDB7DEB7CC24CA94DC2C760101E020E041
S11344B044E050E060E070E080911E1790911F1777
S11344C00E943C01AAD69A83898300E02FEF3FEF34
S11344D0A901BE016F5F7F4F809120179091211732
S11344E00E94A90648E050E060E070E080911E1749
S11344F090911F170E94DC010F900F90DF91CF91D4
S11345000F91FF90EF90DF90CF900895C0DFFECF22
S1134510FC01608389E081838091291790912A1797
S1134520928383838091271790912817948385839E
S1134530809125179091261796838783809123175E
S11345409091241790878187809122178287CF01C9
S1134550089590932A1780932917803D974029F056
S113456080912217886080932217089590932817CA
S11345708093271788319C4F29F0809122178460FB
S11345808093221708959093261780932517892BDB
S113459029F08091221782608093221708959093C6
S11345A0241780932317892B29F080912217816087
S11345B08093221708951092221708956530F1F41C
S11345C0FA0180818F7390E0982F88272181822BB4
S11345D090930A02809309028281F0E48F9FC001C4
S11345E01124FA01238126952695822B90930802A3
S11345F08093070281E080932B170895643051F073
S113460080E090E4909308028093070290930A025A
S11346108093090208950F931F930EED12E220E098
S113462034E244EF50E060E087E20E94C32D9093AF
S11346302D1780932C1721E0892B09F020E0822F7D
S11346401F910F91089580912C1790912D17009729
S113465059F040E060E070E00E94142E843031F4A0
S113466010922B1780E0089582E0089583E0089566
S113467080912C1790912D17009739F064E00E94D7
S1134680602E853021F083E0089582E0089580E073
S113469008956091090270910A0280E090E00E94FE
S11346A06A3020E030E048EC52E40E94F83020E028
S11346B038EF4FE756E40C94D12F0895EADF20E059
S11346C030E040E251E40E94F8300E943E30CB01D9
S11346D00895609107027091080280E090E00E94C2
S11346E06A3020E030E045E253E40E94F83020E0F4
S11346F038EF4FE756E40E94D12F20E030E040E24B
S113470052E40C946C2F0895E4DF20E030E040E2A2
S113471051E40E94F8300E943930CB0108950F9380
S11347201F93CF93DF931F921F92CDB7DEB78C01F7
S113473019822DC0E0916517EC3250F481E08E0FA0
S113474080936517F0E0E956F84E8A81808302C0B1
S1134750109265178A818A30D1F44091651750E030
S1134760FA01EB56F84E1082415051099E012F5F19
S11347703F4F67E977E180916817909169170E942C
S11347805A0B898181110E94910410926517BE0110
S11347906E5F7F4FC80197D6882361F20F900F9008
S11347A0DF91CF911F910F9108950F931F93CF9392
S11347B0DF938C01EB0180916817909169170E9437
S11347C0650AB8018EE297E10E94EA32209779F0F7
S11347D0EEE2F7E101900020E9F7319780E290E002
S11347E091838083BE018EE297E10E94DF32EEE284
S11347F0F7E1DF010D900020E9F711978DE09AE0D1
S113480011969C938E9312961C9201900020E9F7C6
S11348103197EE52F741AE2F8EE297E1AC016A2F49
S113482080916A1790916B17F9D5811111C008E234
S113483015E020E030E04DE250E061EF77E1809157
S11348406817909169170E949E0B81EF97E102C04F
S113485080E090E0DF91CF911F910F9108952F9206
S11348603F924F925F926F927F928F929F92AF92FC
S1134870BF92CF92DF92EF92FF920F931F93CF9349
S1134880DF935C01FC0101900020E9F731976F018F
S1134890C81AD90A5C2C0F2EF1E08F2EF8E09F2E57
S11348A0F02DE12CF12C4C2C3701F4010181128103
S11348B0E80109900020E9F72197C01BD10B3C2E99
S11348C0F9E0CF16D10458F0F4012080FEE02F1255
S11348D006C0B801C5010E94BA32892B09F5442DDE
S11348E0351408F44C2F50E0B801C5010E94F13290
S11348F0892B49F4F301EE0FFF1FE60DF71DEF5F5F
S1134900F74F20800DC08FEFE81AF80AE3E08E0E0F
S1134910911CF1E1EF16F10439F66894222424F88D
S1134920822DDF91CF911F910F91FF90EF90DF9037
S1134930CF90BF90AF909F908F907F906F905F903B
S11349404F903F902F90089530DF89CF0895809144
S11349506817909169170C94650A08958F929F9235
S1134960AF92CF92EF920F931F93CF93C82F8B01E7
S113497041E060E070E088EC90E00E94330A90939C
S113498069178093681710936717009366170F2EA3
S1134990FFE88F2EF3E29F2EF02D6894AA24A6F848
S11349A06894CC24C6F8E12C00E023E040E051EE0A
S11349B060E070E08C2F68D490936B1780936A1733
S11349C0E7E0F1E0808180618083CF911F910F91B6
S11349D0EF90CF90AF909F908F900895882331F0FF
S11349E0E8E0F1E080818F7E80830895E8E0F1E0E3
S11349F0808180618083089560E070E087E895E0BD
S1134A00D4DEE1EFF7E101900020E9F73197E15FAF
S1134A10F74181E0759708F080E00895CF93DF9324
S1134A20EC0160E070E088E995E0BFDEE1EFF7E1DA
S1134A3001900020E9F7E250F84139F461EF77E1A1
S1134A40CE010E94EA3280E002C0188281E0DF9148
S1134A50CF910895FC0101900020E9F79F012151B5
S1134A6031092817390729F4BC0186EC95E06CCF8D
S1134A70089589E00895FC0101900020E9F79F0161
S1134A80215131092817390729F4BC0185ED95E036
S1134A905BCF089589E00895FC0101900020E9F7B7
S1134AA09F01215231092817390729F4BC0184EEEA
S1134AB095E04ACF089589E0089560E070E083E2CC
S1134AC096E042CF08950F931F93E82FF0E0EE0F86
S1134AD0FF1FE350F84F608171818CE296E034DF70
S1134AE0811114C008E215E020E030E04DE250E00E
S1134AF061EF77E180916817909169170E949E0B8E
S1134B00882321F081EF97E1AADE03C081EF97E1CA
S1134B10A6DE1F910F9108950F931F93CF93DF93F8
S1134B201F92CDB7DEB7DB0111969C911197953199
S1134B3008F0B4C0992381F160E070E0272F30E0E1
S1134B40462F50E0FD01E40FF51F928192959F706E
S1134B509A3010F0995C01C0905DF901EE57F84E5F
S1134B6090832F5F3F4FFD01E40FF51F92819F70EB
S1134B70492F50E04A30510514F0995C01C0905D12
S1134B80F901EE57F84E90837E5F6F5F11969C910A
S1134B901197691798F201C070E0E72FF0E0EE5723
S1134BA0F84E10824C91811103C085E396E002C057
S1134BB087E396E022E837E13F932F931F924F93C8
S1134BC09F938F938BE396E09F938F9384EC97E16D
S1134BD09F938F930E944C3360E070E084EC97E1E4
S1134BE0B3DE0FB6F894DEBF0FBECDBF811159C03E
S1134BF008E215E020E030E04DE250E061EF77E1BB
S1134C0080916817909169170E949E0B882309F47C
S1134C1047C081EF97E123DE8E3009F042C087E080
S1134C2089838091661790916717892BA9F1BE013A
S1134C306F5F7F4F81EF97E168D180936C17E981B3
S1134C40F0E0EF50F84EDF010D900020E9F71197E6
S1134C50AE1BBF0BAA2391F0BB27CD0101979C018A
S1134C6012F42F5F3F4F3595279520936D17AF01B1
S1134C704F5F5F4F64E18EE697E173D101E010E08E
S1134C8020E030E046E150E06CE677E18091661781
S1134C90909167170E94950A8EE003C084E101C0D9
S1134CA080E00F90DF91CF911F910F910895813093
S1134CB019F06BE476E002C064E277E08FE496E0FA
S1134CC043CE08959F938F9380E896E09F938F93AC
S1134CD084EC97E19F938F930E944C3360E070E0E3
S1134CE084EC97E131DE0F900F900F900F900F90AE
S1134CF00F9008952F923F924F925F926F927F92FE
S1134D008F929F92AF92BF92CF92DF92EF92FF92D7
S1134D100F931F93CF93DF93CDB7DEB7A0970FB652
S1134D20F894DEBF0FBECDBF6DEA76E089EB96E066
S1134D303CDD95DD8111A3C080E2E2E2F2E0DE0118
S1134D40119601900D928A95E1F79E012F5F3F4FD6
S1134D506901E12CF12C0F2EF5ECAF2EF6E0BF2EFD
S1134D60F02D04EC17E10F2EFEED4F2EF6E05F2E32
S1134D70F02D0F2EF5EF8F2EF6E09F2EF02D0F2E37
S1134D80FFE06F2EF7E07F2EF02D3E2C2F2CFF92AC
S1134D90EF92BF92AF921F930F930E944C3360E047
S1134DA070E0C80102DD5BDD0F900F900F900F9053
S1134DB00F900F90811163C032E03E15E8F4F601C4
S1134DC083818F9382818F9381818F9380818F934D
S1134DD0FF92EF925F924F921F930F930E944C3376
S1134DE060E070E0C801E1DC3ADD0FB6F894DEBFA4
S1134DF00FBECDBF811143C02F923F929F928F92DD
S1134E001F930F930E944C3360E070E0C801CDDC27
S1134E1026DD0F900F900F900F900F900F9081113F
S1134E202EC02F923F927F926F921F930F930E94F6
S1134E304C3360E070E0C801B8DC11DD0F900F90D6
S1134E400F900F900F900F90811119C03FEFE31A4C
S1134E50F30A84E0C80ED11C98E0E916F10409F0C5
S1134E6094CF60E070E087E297E09FDCF8DC81118A
S1134E7006C060E070E088E397E097DCF0DCA09681
S1134E800FB6F894DEBF0FBECDBFDF91CF911F9157
S1134E900F91FF90EF90DF90CF90BF90AF909F90D5
S1134EA08F907F906F905F904F903F902F900895D8
S1134EB0EF92FF920F931F93CF93DF93EC018B013B
S1134EC07A0181E0F4DE81110DC0CE01D4DD8111BF
S1134ED009C0C801E1DD811105C0C701BBDD811135
S1134EE001C0EBDDDF91CF911F910F91FF90EF9007
S1134EF0089590E0FC01EE0FFF1F8E0F9F1FFC0131
S1134F00EF5FF74F818192810895DC01009729F1C9
S1134F10FB012081FC0101900020E9F73197E81B97
S1134F20F90B822F90E0E817F907C8F080E008C079
S1134F30880F382F330F330F830F8053890F2F5F60
S1134F40FD01E20FF11D908130ED390F3A3010F47C
S1134F509111EECFFB012083089580E0089580E055
S1134F6008950F931F93CF93DF93DC01EA012097F9
S1134F70E1F1FA0101900020E9F73197E41BF50B08
S1134F80329710F532C08D01040F151F30E0AE01C9
S1134F90420F531FFA019081913428F09753592FEF
S1134FA05295507F03C0592F5295507F2C0F3D1FAF
S1134FB0F9019181913410F0975301C09053950FEA
S1134FC0F80190838F5F01C080E0282F220F482FC3
S1134FD050E0FE0101900020E9F73197EC1BFD0B36
S1134FE04E175F0710F48613CECFDF91CF911F9138
S1134FF00F91089580912118860F80932118909124
S11350002418913079F028F09230A9F0933019F1F6
S113501008956F3F09F048C01092211881E08093F1
S113502024180895663809F03FC01092201882E0D1
S1135030809324180895E091201881E08E0F8093C6
S11350402018F0E0E25EF74E6083823069F583E079
S11350508093241808959091201821E0290F20931B
S11350602018963009F581110EC0EEE1F8E1808137
S113507090E0982F88272181820F911D9093261804
S11350808093251804C010922618109225181092A7
S11350902418E0912218F0912318309729F0809178
S11350A0251890912618199508958F929F92AF9282
S11350B0CF92EF920F930F2EFAEF8F2EF7E29F2EDF
S11350C0F02D6894AA24A4F86894CC24C4F8E12CA4
S11350D000E023E040E855E260E070E0D5D0909332
S11350E02818809327180F91EF90CF90AF909F903E
S11350F08F90089590932318809322180895CF9346
S1135100DF93CDB7DEB729970FB6F894DEBF0FBE95
S1135110CDBF89E0E2E4F2E09E012F5F3F4FD90169
S113512001900D928A95E1F7109226181092251895
S11351308091271890912818009731F0422F532F0F
S113514069E06CD180E001C082E029960FB6F89442
S1135150DEBF0FBECDBFDF91CF91089565360CF051
S113516064E66C390CF46CE996EF6902B001112421
S11351706854744F811105C070932901609328010C
S1135180089570932B0160932A010895EAE0F1E0F9
S11351908081886180838FE39CE9909327018093C9
S11351A0260160E080E0DADF60E081E0D7DFE0E262
S11351B0F1E08081826A8083E1E2F1E080818A61AA
S11351C080830895ECE7F0E08081807E8083ABE704
S11351D0B0E08C9188608C93808182608083EAE760
S11351E0F0E080818064808308956C98ECE7F0E0BF
S11351F08081806C8083EAE7F0E08081876080832F
S1135200808188608083ADE7B0E08C9186608C9368
S1135210808180688083D6CF08952FB7F8948091D9
S1135220291890912A182FBF08951F920F920FB634
S11352300F9211240BB60F922F933F934F935F93CA
S11352406F937F938F939F93AF93BF93EF93FF934A
S1135250809178009091790090932A18809329186E
S1135260B1DFFF91EF91BF91AF919F918F917F91AA
S11352706F915F914F913F912F910F900BBE0F90C3
S11352800FBE0F901F9018952F923F924F925F92EE
S11352906F927F928F929F92AF92CF92EF92FF92F2
S11352A00F931F93CF93DF93CDB7DEB7F82E2A0168
S11352B03B0188E090E00E9485318C018F2D90E0C5
S11352C0FC01EE0FFF1FE55DF74E1183008301150E
S11352D0110509F466C0880F991FFC01E55FFD4FB5
S11352E080819181D8018D939C938C2D90E0880FBF
S11352F0991F880F991F0E9485311C0186E090E058
S11353000E9485317C014C2DB101CAD5F801F5828A
S1135310E4828A2D90E0880F991F880F991FF5D792
S11353201C0186E090E0F1D77C014A2DB101B8D58B
S1135330D8011396FC92EE92129717969C928E9235
S11353401697FFB6F894ED91FC91119736978081EA
S1135350826080838D909C90C301B201BBD620E013
S113536030E040E051E444D79B01AC0160E074E2DA
S113537084E79BE416D620E030E040E85FE3ACD558
S11353807DD6F40132976083D801ED91FC91119799
S1135390359788E98083ED91FC91349786E080838A
S11353A0FFBEC801DF91CF911F910F91FF90EF9045
S11353B0CF90AF909F908F907F906F905F904F9021
S11353C03F902F900895CF93DF93DC01892B01F157
S11353D01296ED91FC911397938182812581981BFC
S11353E0922384819817B1F0838126952823C08164
S11353F0D181C20FD11D68838F5F958189238383F7
S1135400ED91FC91359780818062808380E003C0B8
S113541081E001C082E0DF91CF910895EF92FF9285
S11354200F931F93CF93DF937C01009709F441C03E
S1135430DC011296ED91FC91139793818281981B64
S1135440858198238481891B8617A8F1662341F1FD
S1135450842F952FDC016150462F50E04F5F5F4F42
S1135460480F591FE701EA81FB81938182812581DD
S1135470981B92238481981779F08C9193812695B7
S11354802923608171818B01020F111DE80188833A
S11354909F5F8581982393831196A417B50711F70D
S11354A0D701ED91FC91359780818062808380E003
S11354B003C081E001C082E0DF91CF911F910F9181
S11354C0FF90EF9008950097D1F0DC011496ED91D0
S11354D0FC91159793818281981799F09281858127
S11354E086958923A081B181A80FB11D8C91DB0120
S11354F08C939F5F85819823928380E0089581E057
S1135500089583E008951F920F920FB60F9211240D
S11355100BB60F922F933F934F935F936F937F93A9
S11355208F939F93AF93BF93CF93DF93EF93FF93A7
S1135530A0912B18B0912C18109711F16091C6000E
S11355401496ED91FC911597938182812581981B86
S113555092238481981761F0838126952823C08142
S1135560D181C20FD11D68838F5F95818923838385
S11355701696ED91FC911797309711F0CD0119957E
S1135580FF91EF91DF91CF91BF91AF919F918F9157
S11355907F916F915F914F913F912F910F900BBE2F
S11355A00F900FBE0F901F9018951F920F920FB679
S11355B00F9211240BB60F922F938F939F93AF9357
S11355C0BF93EF93FF93E0912B18F0912C18309731
S11355D0B9F00280F381E02D938182819817B1F0B4
S11355E092818581282F26952923A081B181A20F3C
S11355F0B11D2C919F5F892382832093C6000BC029
S1135600E1ECF0E080818F7D808305C0E1ECF0E087
S113561080818F7D8083FF91EF91BF91AF919F91A6
S11356208F912F910F900BBE0F900FBE0F901F9074
S113563018951F920F920FB60F9211240BB60F926A
S11356402F933F934F935F936F937F938F939F9386
S1135650AF93BF93CF93DF93EF93FF93A0912D1854
S1135660B0912E18109711F16091CE001496ED911F
S1135670FC911597938182812581981B92238481C3
S1135680981761F0838126952823C081D181C20FA8
S1135690D11D68838F5F9581892383831696ED914D
S11356A0FC911797309711F0CD011995FF91EF9167
S11356B0DF91CF91BF91AF919F918F917F916F9126
S11356C05F914F913F912F910F900BBE0F900FBEA2
S11356D00F901F9018951F920F920FB60F921124DE
S11356E00BB60F922F938F939F93AF93BF93EF9328
S11356F0FF93E0912D18F0912E183097B9F00280A5
S1135700F381E02D938182819817B1F09281858194
S1135710282F26952923A081B181A20FB11D2C9198
S11357209F5F892382832093CE000BC0E9ECF0E0D5
S113573080818F7D808305C0E9ECF0E080818F7DDE
S11357408083FF91EF91BF91AF919F918F912F91A2
S11357500F900BBE0F900FBE0F901F9018951F92C5
S11357600F920FB60F9211240BB60F922F933F9303
S11357704F935F936F937F938F939F93AF93BF9355
S1135780CF93DF93EF93FF93A0912F18B09130182C
S1135790109711F16091D6001496ED91FC91159734
S11357A0938182812581981B92238481981761F0CB
S11357B0838126952823C081D181C20FD11D68839E
S11357C08F5F9581892383831696ED91FC911797BA
S11357D0309711F0CD011995FF91EF91DF91CF91A1
S11357E0BF91AF919F918F917F916F915F914F91F5
S11357F03F912F910F900BBE0F900FBE0F901F90F3
S113580018951F920F920FB60F9211240BB60F9298
S11358102F938F939F93AF93BF93EF93FF93E09155
S11358202F18F09130183097B9F00280F381E02DF1
S1135830938182819817B1F092818581282F2695D2
S11358402923A081B181A20FB11D2C919F5F8923CF
S113585082832093D6000BC0E1EDF0E080818F7D40
S1135860808305C0E1EDF0E080818F7D8083FF912E
S1135870EF91BF91AF919F918F912F910F900BBE9C
S11358800F900FBE0F901F9018951F920F920FB696
S11358900F9211240BB60F922F933F934F935F9364
S11358A06F937F938F939F93AF93BF93CF93DF9324
S11358B0EF93FF93A0913118B0913218109711F122
S11358C0609136011496ED91FC9115979381828134
S11358D02581981B92238481981761F083812695F2
S11358E02823C081D181C20FD11D68838F5F958128
S11358F0892383831696ED91FC911797309711F0C5
S1135900CD011995FF91EF91DF91CF91BF91AF91A7
S11359109F918F917F916F915F914F913F912F91C3
S11359200F900BBE0F900FBE0F901F9018951F92F3
S11359300F920FB60F9211240BB60F922F938F93E1
S11359409F93AF93BF93EF93FF93E0913118F0913E
S113595032183097B9F00280F381E02D938182816F
S11359609817B1F092818581282F26952923A0814B
S1135970B181A20FB11D2C919F5F89238283209353
S113598036010BC0E1E3F1E080818F7D808305C0A7
S1135990E1E3F1E080818F7D8083FF91EF91BF91FE
S11359A0AF919F918F912F910F900BBE0F900FBECF
S11359B00F901F901895CF93DF931F92CDB7DEB74A
S11359C0BE016F5F7F4F80913318909134187BDD57
S11359D08111F6CF898190E00F90DF91CF910895E6
S11359E0682F8091331890913418EDDC80E090E0BA
S11359F008958F929F92AF92CF92EF920F93812C42
S1135A00912C6894AA24A7F86894CC24C7F8E12CB4
S1135A1000E023E040E051EE60E070E035DC90937C
S1135A20341880933318E0E6F8E183E192E091833F
S1135A308083938382830F91EF90CF90AF909F9058
S1135A408F90089590E0FC01EE0FFF1FE80FF91FFF
S1135A50EE0FFF1FEB5CF74E2381211120C09C0148
S1135A60220F331FF901E80FF91FEE0FFF1FEB5C44
S1135A70F74EA081B1814C91F901E80FF91FEE0FA7
S1135A80FF1FEB5CF74E81E090E0028002C0880FBC
S1135A90991F0A94E2F7809584238C930895FC015E
S1135AA0EE0FFF1FDF01A80FB91FAA0FBB1FAB5CCE
S1135AB0B74E0D90BC91A02D2C91E80FF91FEE0F5D
S1135AC0FF1FEB5CF74E81E090E0028002C0880F7C
S1135AD0991F0A94E2F7822B8C930895CF93DF9356
S1135AE090E0FC01EE0FFF1FDF01A80FB91FAA0F02
S1135AF0BB1FAB5CB74ECD91DC911197488121E07F
S1135B0030E012960C90129702C0220F331F0A94B1
S1135B10E2F724272883FD0181E08483DF91CF917C
S1135B200895282F30E0F901EE0FFF1FE20FF31F55
S1135B30EE0FFF1FEB5CF74E93E0948383CF089541
S1135B4090E0FC01EE0FFF1FDF01A80FB91FAA0FA1
S1135B50BB1FAB5CB74E26E015962C931597FD0141
S1135B601482089580915B1881110CC08CE080939D
S1135B70B8008FEF8093BB0084E08093BC0081E089
S1135B8080935B180895AF92BF92CF92DF92EF9209
S1135B90FF920F931F93CF93DF93A82EB62E690124
S1135BA07A0184E090E0B1D3EC01892B61F1A88201
S1135BB081E0B81212C0C701B60120EA36E841E01C
S1135BC050E079D3DA01C9014097A109B109B6952A
S1135BD0A79597958795898311C0C701B60120E8D9
S1135BE03AE146E050E067D3DA01C9014097A109E0
S1135BF0B109B695A7959795879589831B830A83E1
S1135C008C2F9D2F02C080E090E0DF91CF911F91F7
S1135C100F91FF90EF90DF90CF90BF90AF900895D9
S1135C208091BC0081700895FF920F931F93CF93CE
S1135C30DF930097D1F14A30D0F5F42E8B01EC01BB
S1135C40EFDF811136C080914E1890914F18C8171C
S1135C50D90741F087DF89818093B800D0934F182A
S1135C60C0934E1881E08F0D809350188881880F5F
S1135C7080935118FF2089F0F801A2E5B8E14FEFB5
S1135C804F0D642F70E0CB010196B801680F791FA6
S1135C9081918D93E617F707D9F788EF8093210256
S1135CA085EA8093BC0084E005C086E003C087E0F9
S1135CB001C082E0DF91CF911F910F91FF90089571
S1135CC01F93CF93DF93009729F16B3028F5162F9C
S1135CD0EC01A6DF811122C080914E1890914F18DB
S1135CE0C817D90741F03EDF89818093B800D0936B
